{
  "contractName": "AccessControl",
  "abi": [
    {
      "anonymous": false,
      "inputs": [
        {
          "indexed": true,
          "internalType": "address",
          "name": "user",
          "type": "address"
        },
        {
          "indexed": true,
          "internalType": "uint256",
          "name": "courseId",
          "type": "uint256"
        }
      ],
      "name": "AccessPurchased",
      "type": "event"
    },
    {
      "inputs": [
        {
          "internalType": "address",
          "name": "",
          "type": "address"
        },
        {
          "internalType": "uint256",
          "name": "",
          "type": "uint256"
        }
      ],
      "name": "accessStatus",
      "outputs": [
        {
          "internalType": "bool",
          "name": "",
          "type": "bool"
        }
      ],
      "stateMutability": "view",
      "type": "function",
      "constant": true
    },
    {
      "inputs": [
        {
          "internalType": "uint256",
          "name": "courseId",
          "type": "uint256"
        },
        {
          "internalType": "address",
          "name": "tokenAddress",
          "type": "address"
        },
        {
          "internalType": "uint256",
          "name": "fee",
          "type": "uint256"
        }
      ],
      "name": "purchaseAccess",
      "outputs": [],
      "stateMutability": "nonpayable",
      "type": "function"
    },
    {
      "inputs": [
        {
          "internalType": "address",
          "name": "user",
          "type": "address"
        },
        {
          "internalType": "uint256",
          "name": "courseId",
          "type": "uint256"
        }
      ],
      "name": "getAccessStatus",
      "outputs": [
        {
          "internalType": "bool",
          "name": "",
          "type": "bool"
        }
      ],
      "stateMutability": "view",
      "type": "function",
      "constant": true
    }
  ],
  "bytecode": "0x608060405234801561000f575f80fd5b506105598061001d5f395ff3fe608060405234801561000f575f80fd5b506004361061003f575f3560e01c80634b570110146100435780636126f29e14610073578063dd91b939146100a3575b5f80fd5b61005d60048036038101906100589190610342565b6100bf565b60405161006a919061039a565b60405180910390f35b61008d60048036038101906100889190610342565b610120565b60405161009a919061039a565b60405180910390f35b6100bd60048036038101906100b891906103b3565b610149565b005b5f805f8473ffffffffffffffffffffffffffffffffffffffff1673ffffffffffffffffffffffffffffffffffffffff1681526020019081526020015f205f8381526020019081526020015f205f9054906101000a900460ff16905092915050565b5f602052815f5260405f20602052805f5260405f205f915091509054906101000a900460ff1681565b8173ffffffffffffffffffffffffffffffffffffffff166323b872dd3330846040518463ffffffff1660e01b815260040161018693929190610421565b6020604051808303815f875af11580156101a2573d5f803e3d5ffd5b505050506040513d601f19601f820116820180604052508101906101c69190610480565b610205576040517f08c379a00000000000000000000000000000000000000000000000000000000081526004016101fc90610505565b60405180910390fd5b60015f803373ffffffffffffffffffffffffffffffffffffffff1673ffffffffffffffffffffffffffffffffffffffff1681526020019081526020015f205f8581526020019081526020015f205f6101000a81548160ff021916908315150217905550823373ffffffffffffffffffffffffffffffffffffffff167fd197341679e0f70106b6eff7e9daac205992e31659fa6d71b6a0f77719d182ca60405160405180910390a3505050565b5f80fd5b5f73ffffffffffffffffffffffffffffffffffffffff82169050919050565b5f6102de826102b5565b9050919050565b6102ee816102d4565b81146102f8575f80fd5b50565b5f81359050610309816102e5565b92915050565b5f819050919050565b6103218161030f565b811461032b575f80fd5b50565b5f8135905061033c81610318565b92915050565b5f8060408385031215610358576103576102b1565b5b5f610365858286016102fb565b92505060206103768582860161032e565b9150509250929050565b5f8115159050919050565b61039481610380565b82525050565b5f6020820190506103ad5f83018461038b565b92915050565b5f805f606084860312156103ca576103c96102b1565b5b5f6103d78682870161032e565b93505060206103e8868287016102fb565b92505060406103f98682870161032e565b9150509250925092565b61040c816102d4565b82525050565b61041b8161030f565b82525050565b5f6060820190506104345f830186610403565b6104416020830185610403565b61044e6040830184610412565b949350505050565b61045f81610380565b8114610469575f80fd5b50565b5f8151905061047a81610456565b92915050565b5f60208284031215610495576104946102b1565b5b5f6104a28482850161046c565b91505092915050565b5f82825260208201905092915050565b7f546f6b656e207472616e73666572206661696c656400000000000000000000005f82015250565b5f6104ef6015836104ab565b91506104fa826104bb565b602082019050919050565b5f6020820190508181035f83015261051c816104e3565b905091905056fea26469706673582212205df7e7914a3f5818c4a6bcdaf116fbe8977351e5f3f7bad560d03924a5a5ede364736f6c63430008150033",
  "immutableReferences": {},
  "source": "// SPDX-License-Identifier: MIT\r\n\r\n// AccessControl.sol\r\n\r\npragma solidity ^0.8.0;\r\n\r\nimport \"@openzeppelin/contracts/token/ERC20/IERC20.sol\";\r\n\r\ncontract AccessControl {\r\n    // Mapping to track access status for each user and course\r\n    mapping(address => mapping(uint256 => bool)) public accessStatus;\r\n\r\n    // Event emitted when a user purchases access to a course\r\n    event AccessPurchased(address indexed user, uint256 indexed courseId);\r\n\r\n    // Function to purchase access to a course\r\n    function purchaseAccess(uint256 courseId, address tokenAddress, uint256 fee) public {\r\n        // Transfer fee amount of tokens from user to this contract\r\n        require(IERC20(tokenAddress).transferFrom(msg.sender, address(this), fee), \"Token transfer failed\");\r\n\r\n        // Grant access to the course for the user\r\n        accessStatus[msg.sender][courseId] = true;\r\n\r\n        // Emit event\r\n        emit AccessPurchased(msg.sender, courseId);\r\n    }\r\n\r\n    // Function to check access status for a course\r\n    function getAccessStatus(address user, uint256 courseId) public view returns (bool) {\r\n        return accessStatus[user][courseId];\r\n    }\r\n}\r\n",
  "sourcePath": "C:\\Users\\LENOVO\\OneDrive\\Desktop\\DALP\\contracts\\AccessControl.sol",
  "compiler": {
    "name": "solc",
    "version": "0.8.21+commit.d9974bed.Emscripten.clang"
  },
  "schemaVersion": "3.4.16",
  "updatedAt": "2024-03-31T02:41:26.695Z",
  "networkType": "ethereum",
  "devdoc": {
    "kind": "dev",
    "methods": {},
    "version": 1
  },
  "userdoc": {
    "kind": "user",
    "methods": {},
    "version": 1
  }
}