{
  "contractName": "Course",
  "abi": [
    {
      "inputs": [
        {
          "internalType": "address",
          "name": "_accessControlAddress",
          "type": "address"
        }
      ],
      "stateMutability": "nonpayable",
      "type": "constructor"
    },
    {
      "inputs": [
        {
          "internalType": "address",
          "name": "sender",
          "type": "address"
        },
        {
          "internalType": "uint256",
          "name": "tokenId",
          "type": "uint256"
        },
        {
          "internalType": "address",
          "name": "owner",
          "type": "address"
        }
      ],
      "name": "ERC721IncorrectOwner",
      "type": "error"
    },
    {
      "inputs": [
        {
          "internalType": "address",
          "name": "operator",
          "type": "address"
        },
        {
          "internalType": "uint256",
          "name": "tokenId",
          "type": "uint256"
        }
      ],
      "name": "ERC721InsufficientApproval",
      "type": "error"
    },
    {
      "inputs": [
        {
          "internalType": "address",
          "name": "approver",
          "type": "address"
        }
      ],
      "name": "ERC721InvalidApprover",
      "type": "error"
    },
    {
      "inputs": [
        {
          "internalType": "address",
          "name": "operator",
          "type": "address"
        }
      ],
      "name": "ERC721InvalidOperator",
      "type": "error"
    },
    {
      "inputs": [
        {
          "internalType": "address",
          "name": "owner",
          "type": "address"
        }
      ],
      "name": "ERC721InvalidOwner",
      "type": "error"
    },
    {
      "inputs": [
        {
          "internalType": "address",
          "name": "receiver",
          "type": "address"
        }
      ],
      "name": "ERC721InvalidReceiver",
      "type": "error"
    },
    {
      "inputs": [
        {
          "internalType": "address",
          "name": "sender",
          "type": "address"
        }
      ],
      "name": "ERC721InvalidSender",
      "type": "error"
    },
    {
      "inputs": [
        {
          "internalType": "uint256",
          "name": "tokenId",
          "type": "uint256"
        }
      ],
      "name": "ERC721NonexistentToken",
      "type": "error"
    },
    {
      "inputs": [
        {
          "internalType": "address",
          "name": "owner",
          "type": "address"
        }
      ],
      "name": "OwnableInvalidOwner",
      "type": "error"
    },
    {
      "inputs": [
        {
          "internalType": "address",
          "name": "account",
          "type": "address"
        }
      ],
      "name": "OwnableUnauthorizedAccount",
      "type": "error"
    },
    {
      "anonymous": false,
      "inputs": [
        {
          "indexed": true,
          "internalType": "address",
          "name": "owner",
          "type": "address"
        },
        {
          "indexed": true,
          "internalType": "address",
          "name": "approved",
          "type": "address"
        },
        {
          "indexed": true,
          "internalType": "uint256",
          "name": "tokenId",
          "type": "uint256"
        }
      ],
      "name": "Approval",
      "type": "event"
    },
    {
      "anonymous": false,
      "inputs": [
        {
          "indexed": true,
          "internalType": "address",
          "name": "owner",
          "type": "address"
        },
        {
          "indexed": true,
          "internalType": "address",
          "name": "operator",
          "type": "address"
        },
        {
          "indexed": false,
          "internalType": "bool",
          "name": "approved",
          "type": "bool"
        }
      ],
      "name": "ApprovalForAll",
      "type": "event"
    },
    {
      "anonymous": false,
      "inputs": [
        {
          "indexed": true,
          "internalType": "uint256",
          "name": "courseId",
          "type": "uint256"
        },
        {
          "indexed": false,
          "internalType": "string",
          "name": "name",
          "type": "string"
        },
        {
          "indexed": false,
          "internalType": "string",
          "name": "description",
          "type": "string"
        },
        {
          "indexed": false,
          "internalType": "uint256",
          "name": "price",
          "type": "uint256"
        },
        {
          "indexed": false,
          "internalType": "string",
          "name": "ipfsHash",
          "type": "string"
        }
      ],
      "name": "CourseCreated",
      "type": "event"
    },
    {
      "anonymous": false,
      "inputs": [
        {
          "indexed": true,
          "internalType": "address",
          "name": "previousOwner",
          "type": "address"
        },
        {
          "indexed": true,
          "internalType": "address",
          "name": "newOwner",
          "type": "address"
        }
      ],
      "name": "OwnershipTransferred",
      "type": "event"
    },
    {
      "anonymous": false,
      "inputs": [
        {
          "indexed": true,
          "internalType": "address",
          "name": "from",
          "type": "address"
        },
        {
          "indexed": true,
          "internalType": "address",
          "name": "to",
          "type": "address"
        },
        {
          "indexed": true,
          "internalType": "uint256",
          "name": "tokenId",
          "type": "uint256"
        }
      ],
      "name": "Transfer",
      "type": "event"
    },
    {
      "inputs": [
        {
          "internalType": "address",
          "name": "to",
          "type": "address"
        },
        {
          "internalType": "uint256",
          "name": "tokenId",
          "type": "uint256"
        }
      ],
      "name": "approve",
      "outputs": [],
      "stateMutability": "nonpayable",
      "type": "function"
    },
    {
      "inputs": [
        {
          "internalType": "address",
          "name": "owner",
          "type": "address"
        }
      ],
      "name": "balanceOf",
      "outputs": [
        {
          "internalType": "uint256",
          "name": "",
          "type": "uint256"
        }
      ],
      "stateMutability": "view",
      "type": "function",
      "constant": true
    },
    {
      "inputs": [
        {
          "internalType": "uint256",
          "name": "",
          "type": "uint256"
        }
      ],
      "name": "courses",
      "outputs": [
        {
          "internalType": "string",
          "name": "name",
          "type": "string"
        },
        {
          "internalType": "string",
          "name": "description",
          "type": "string"
        },
        {
          "internalType": "uint256",
          "name": "price",
          "type": "uint256"
        },
        {
          "internalType": "string",
          "name": "ipfsHash",
          "type": "string"
        }
      ],
      "stateMutability": "view",
      "type": "function",
      "constant": true
    },
    {
      "inputs": [
        {
          "internalType": "uint256",
          "name": "tokenId",
          "type": "uint256"
        }
      ],
      "name": "getApproved",
      "outputs": [
        {
          "internalType": "address",
          "name": "",
          "type": "address"
        }
      ],
      "stateMutability": "view",
      "type": "function",
      "constant": true
    },
    {
      "inputs": [
        {
          "internalType": "address",
          "name": "owner",
          "type": "address"
        },
        {
          "internalType": "address",
          "name": "operator",
          "type": "address"
        }
      ],
      "name": "isApprovedForAll",
      "outputs": [
        {
          "internalType": "bool",
          "name": "",
          "type": "bool"
        }
      ],
      "stateMutability": "view",
      "type": "function",
      "constant": true
    },
    {
      "inputs": [],
      "name": "name",
      "outputs": [
        {
          "internalType": "string",
          "name": "",
          "type": "string"
        }
      ],
      "stateMutability": "view",
      "type": "function",
      "constant": true
    },
    {
      "inputs": [],
      "name": "owner",
      "outputs": [
        {
          "internalType": "address",
          "name": "",
          "type": "address"
        }
      ],
      "stateMutability": "view",
      "type": "function",
      "constant": true
    },
    {
      "inputs": [
        {
          "internalType": "uint256",
          "name": "tokenId",
          "type": "uint256"
        }
      ],
      "name": "ownerOf",
      "outputs": [
        {
          "internalType": "address",
          "name": "",
          "type": "address"
        }
      ],
      "stateMutability": "view",
      "type": "function",
      "constant": true
    },
    {
      "inputs": [],
      "name": "renounceOwnership",
      "outputs": [],
      "stateMutability": "nonpayable",
      "type": "function"
    },
    {
      "inputs": [
        {
          "internalType": "address",
          "name": "from",
          "type": "address"
        },
        {
          "internalType": "address",
          "name": "to",
          "type": "address"
        },
        {
          "internalType": "uint256",
          "name": "tokenId",
          "type": "uint256"
        }
      ],
      "name": "safeTransferFrom",
      "outputs": [],
      "stateMutability": "nonpayable",
      "type": "function"
    },
    {
      "inputs": [
        {
          "internalType": "address",
          "name": "from",
          "type": "address"
        },
        {
          "internalType": "address",
          "name": "to",
          "type": "address"
        },
        {
          "internalType": "uint256",
          "name": "tokenId",
          "type": "uint256"
        },
        {
          "internalType": "bytes",
          "name": "data",
          "type": "bytes"
        }
      ],
      "name": "safeTransferFrom",
      "outputs": [],
      "stateMutability": "nonpayable",
      "type": "function"
    },
    {
      "inputs": [
        {
          "internalType": "address",
          "name": "operator",
          "type": "address"
        },
        {
          "internalType": "bool",
          "name": "approved",
          "type": "bool"
        }
      ],
      "name": "setApprovalForAll",
      "outputs": [],
      "stateMutability": "nonpayable",
      "type": "function"
    },
    {
      "inputs": [
        {
          "internalType": "bytes4",
          "name": "interfaceId",
          "type": "bytes4"
        }
      ],
      "name": "supportsInterface",
      "outputs": [
        {
          "internalType": "bool",
          "name": "",
          "type": "bool"
        }
      ],
      "stateMutability": "view",
      "type": "function",
      "constant": true
    },
    {
      "inputs": [],
      "name": "symbol",
      "outputs": [
        {
          "internalType": "string",
          "name": "",
          "type": "string"
        }
      ],
      "stateMutability": "view",
      "type": "function",
      "constant": true
    },
    {
      "inputs": [
        {
          "internalType": "uint256",
          "name": "tokenId",
          "type": "uint256"
        }
      ],
      "name": "tokenURI",
      "outputs": [
        {
          "internalType": "string",
          "name": "",
          "type": "string"
        }
      ],
      "stateMutability": "view",
      "type": "function",
      "constant": true
    },
    {
      "inputs": [
        {
          "internalType": "address",
          "name": "from",
          "type": "address"
        },
        {
          "internalType": "address",
          "name": "to",
          "type": "address"
        },
        {
          "internalType": "uint256",
          "name": "tokenId",
          "type": "uint256"
        }
      ],
      "name": "transferFrom",
      "outputs": [],
      "stateMutability": "nonpayable",
      "type": "function"
    },
    {
      "inputs": [
        {
          "internalType": "address",
          "name": "newOwner",
          "type": "address"
        }
      ],
      "name": "transferOwnership",
      "outputs": [],
      "stateMutability": "nonpayable",
      "type": "function"
    },
    {
      "inputs": [
        {
          "internalType": "string",
          "name": "name",
          "type": "string"
        },
        {
          "internalType": "string",
          "name": "description",
          "type": "string"
        },
        {
          "internalType": "uint256",
          "name": "price",
          "type": "uint256"
        },
        {
          "internalType": "string",
          "name": "ipfsHash",
          "type": "string"
        }
      ],
      "name": "createCourse",
      "outputs": [],
      "stateMutability": "nonpayable",
      "type": "function"
    },
    {
      "inputs": [
        {
          "internalType": "uint256",
          "name": "courseId",
          "type": "uint256"
        },
        {
          "internalType": "address",
          "name": "tokenAddress",
          "type": "address"
        },
        {
          "internalType": "uint256",
          "name": "fee",
          "type": "uint256"
        }
      ],
      "name": "purchaseAccess",
      "outputs": [],
      "stateMutability": "payable",
      "type": "function",
      "payable": true
    },
    {
      "inputs": [
        {
          "internalType": "uint256",
          "name": "courseId",
          "type": "uint256"
        }
      ],
      "name": "getCourse",
      "outputs": [
        {
          "internalType": "string",
          "name": "name",
          "type": "string"
        },
        {
          "internalType": "string",
          "name": "description",
          "type": "string"
        },
        {
          "internalType": "uint256",
          "name": "price",
          "type": "uint256"
        },
        {
          "internalType": "string",
          "name": "ipfsHash",
          "type": "string"
        }
      ],
      "stateMutability": "view",
      "type": "function",
      "constant": true
    }
  ],
  "bytecode": "0x608060405234801562000010575f80fd5b5060405162003794380380620037948339818101604052810190620000369190620002bc565b336040518060400160405280600681526020017f436f7572736500000000000000000000000000000000000000000000000000008152506040518060400160405280600381526020017f4352530000000000000000000000000000000000000000000000000000000000815250815f9081620000b3919062000550565b508060019081620000c5919062000550565b5050505f73ffffffffffffffffffffffffffffffffffffffff168173ffffffffffffffffffffffffffffffffffffffff16036200013b575f6040517f1e4fbdf700000000000000000000000000000000000000000000000000000000815260040162000132919062000645565b60405180910390fd5b6200014c816200019460201b60201c565b508060075f6101000a81548173ffffffffffffffffffffffffffffffffffffffff021916908373ffffffffffffffffffffffffffffffffffffffff1602179055505062000660565b5f60065f9054906101000a900473ffffffffffffffffffffffffffffffffffffffff1690508160065f6101000a81548173ffffffffffffffffffffffffffffffffffffffff021916908373ffffffffffffffffffffffffffffffffffffffff1602179055508173ffffffffffffffffffffffffffffffffffffffff168173ffffffffffffffffffffffffffffffffffffffff167f8be0079c531659141344cd1fd0a4f28419497f9722a3daafe3b4186f6b6457e060405160405180910390a35050565b5f80fd5b5f73ffffffffffffffffffffffffffffffffffffffff82169050919050565b5f62000286826200025b565b9050919050565b62000298816200027a565b8114620002a3575f80fd5b50565b5f81519050620002b6816200028d565b92915050565b5f60208284031215620002d457620002d362000257565b5b5f620002e384828501620002a6565b91505092915050565b5f81519050919050565b7f4e487b71000000000000000000000000000000000000000000000000000000005f52604160045260245ffd5b7f4e487b71000000000000000000000000000000000000000000000000000000005f52602260045260245ffd5b5f60028204905060018216806200036857607f821691505b6020821081036200037e576200037d62000323565b5b50919050565b5f819050815f5260205f209050919050565b5f6020601f8301049050919050565b5f82821b905092915050565b5f60088302620003e27fffffffffffffffffffffffffffffffffffffffffffffffffffffffffffffffff82620003a5565b620003ee8683620003a5565b95508019841693508086168417925050509392505050565b5f819050919050565b5f819050919050565b5f62000438620004326200042c8462000406565b6200040f565b62000406565b9050919050565b5f819050919050565b620004538362000418565b6200046b62000462826200043f565b848454620003b1565b825550505050565b5f90565b6200048162000473565b6200048e81848462000448565b505050565b5b81811015620004b557620004a95f8262000477565b60018101905062000494565b5050565b601f8211156200050457620004ce8162000384565b620004d98462000396565b81016020851015620004e9578190505b62000501620004f88562000396565b83018262000493565b50505b505050565b5f82821c905092915050565b5f620005265f198460080262000509565b1980831691505092915050565b5f62000540838362000515565b9150826002028217905092915050565b6200055b82620002ec565b67ffffffffffffffff811115620005775762000576620002f6565b5b62000583825462000350565b62000590828285620004b9565b5f60209050601f831160018114620005c6575f8415620005b1578287015190505b620005bd858262000533565b8655506200062c565b601f198416620005d68662000384565b5f5b82811015620005ff57848901518255600182019150602085019450602081019050620005d8565b868310156200061f57848901516200061b601f89168262000515565b8355505b6001600288020188555050505b505050505050565b6200063f816200027a565b82525050565b5f6020820190506200065a5f83018462000634565b92915050565b613126806200066e5f395ff3fe60806040526004361061011e575f3560e01c80638da5cb5b1161009f578063b88d4fde11610063578063b88d4fde146103ec578063c87b56dd14610414578063dd91b93914610450578063e985e9c51461046c578063f2fde38b146104a85761011e565b80638da5cb5b14610309578063904ae8ad1461033357806395d89b411461035b57806396f979d214610385578063a22cb465146103c45761011e565b806323b872dd116100e657806323b872dd1461022b57806342842e0e146102535780636352211e1461027b57806370a08231146102b7578063715018a6146102f35761011e565b806301ffc9a71461012257806306fdde031461015e578063081812fc14610188578063095ea7b3146101c45780630b91e28d146101ec575b5f80fd5b34801561012d575f80fd5b50610148600480360381019061014391906123bb565b6104d0565b6040516101559190612400565b60405180910390f35b348015610169575f80fd5b506101726105b1565b60405161017f91906124a3565b60405180910390f35b348015610193575f80fd5b506101ae60048036038101906101a991906124f6565b610640565b6040516101bb9190612560565b60405180910390f35b3480156101cf575f80fd5b506101ea60048036038101906101e591906125a3565b61065b565b005b3480156101f7575f80fd5b50610212600480360381019061020d91906124f6565b610671565b60405161022294939291906125f0565b60405180910390f35b348015610236575f80fd5b50610251600480360381019061024c9190612648565b6108c8565b005b34801561025e575f80fd5b5061027960048036038101906102749190612648565b6109c7565b005b348015610286575f80fd5b506102a1600480360381019061029c91906124f6565b6109e6565b6040516102ae9190612560565b60405180910390f35b3480156102c2575f80fd5b506102dd60048036038101906102d89190612698565b6109f7565b6040516102ea91906126c3565b60405180910390f35b3480156102fe575f80fd5b50610307610aad565b005b348015610314575f80fd5b5061031d610ac0565b60405161032a9190612560565b60405180910390f35b34801561033e575f80fd5b5061035960048036038101906103549190612808565b610ae8565b005b348015610366575f80fd5b5061036f610be4565b60405161037c91906124a3565b60405180910390f35b348015610390575f80fd5b506103ab60048036038101906103a691906124f6565b610c74565b6040516103bb94939291906125f0565b60405180910390f35b3480156103cf575f80fd5b506103ea60048036038101906103e591906128ea565b610e41565b005b3480156103f7575f80fd5b50610412600480360381019061040d91906129c6565b610e57565b005b34801561041f575f80fd5b5061043a600480360381019061043591906124f6565b610e74565b60405161044791906124a3565b60405180910390f35b61046a60048036038101906104659190612a46565b610eda565b005b348015610477575f80fd5b50610492600480360381019061048d9190612a96565b611253565b60405161049f9190612400565b60405180910390f35b3480156104b3575f80fd5b506104ce60048036038101906104c99190612698565b6112e1565b005b5f7f80ac58cd000000000000000000000000000000000000000000000000000000007bffffffffffffffffffffffffffffffffffffffffffffffffffffffff1916827bffffffffffffffffffffffffffffffffffffffffffffffffffffffff1916148061059a57507f5b5e139f000000000000000000000000000000000000000000000000000000007bffffffffffffffffffffffffffffffffffffffffffffffffffffffff1916827bffffffffffffffffffffffffffffffffffffffffffffffffffffffff1916145b806105aa57506105a982611365565b5b9050919050565b60605f80546105bf90612b01565b80601f01602080910402602001604051908101604052809291908181526020018280546105eb90612b01565b80156106365780601f1061060d57610100808354040283529160200191610636565b820191905f5260205f20905b81548152906001019060200180831161061957829003601f168201915b5050505050905090565b5f61064a826113ce565b5061065482611454565b9050919050565b61066d828261066861148d565b611494565b5050565b6060805f606060088054905085106106be576040517f08c379a00000000000000000000000000000000000000000000000000000000081526004016106b590612b7b565b60405180910390fd5b5f600886815481106106d3576106d2612b99565b5b905f5260205f2090600402016040518060800160405290815f820180546106f990612b01565b80601f016020809104026020016040519081016040528092919081815260200182805461072590612b01565b80156107705780601f1061074757610100808354040283529160200191610770565b820191905f5260205f20905b81548152906001019060200180831161075357829003601f168201915b5050505050815260200160018201805461078990612b01565b80601f01602080910402602001604051908101604052809291908181526020018280546107b590612b01565b80156108005780601f106107d757610100808354040283529160200191610800565b820191905f5260205f20905b8154815290600101906020018083116107e357829003601f168201915b505050505081526020016002820154815260200160038201805461082390612b01565b80601f016020809104026020016040519081016040528092919081815260200182805461084f90612b01565b801561089a5780601f106108715761010080835404028352916020019161089a565b820191905f5260205f20905b81548152906001019060200180831161087d57829003601f168201915b5050505050815250509050805f01518160200151826040015183606001519450945094509450509193509193565b5f73ffffffffffffffffffffffffffffffffffffffff168273ffffffffffffffffffffffffffffffffffffffff1603610938575f6040517f64a0ae9200000000000000000000000000000000000000000000000000000000815260040161092f9190612560565b60405180910390fd5b5f61094b838361094661148d565b6114a6565b90508373ffffffffffffffffffffffffffffffffffffffff168173ffffffffffffffffffffffffffffffffffffffff16146109c1578382826040517f64283d7b0000000000000000000000000000000000000000000000000000000081526004016109b893929190612bc6565b60405180910390fd5b50505050565b6109e183838360405180602001604052805f815250610e57565b505050565b5f6109f0826113ce565b9050919050565b5f8073ffffffffffffffffffffffffffffffffffffffff168273ffffffffffffffffffffffffffffffffffffffff1603610a68575f6040517f89c62b64000000000000000000000000000000000000000000000000000000008152600401610a5f9190612560565b60405180910390fd5b60035f8373ffffffffffffffffffffffffffffffffffffffff1673ffffffffffffffffffffffffffffffffffffffff1681526020019081526020015f20549050919050565b610ab56116b1565b610abe5f611738565b565b5f60065f9054906101000a900473ffffffffffffffffffffffffffffffffffffffff16905090565b610af06116b1565b5f60088054905090506008604051806080016040528087815260200186815260200185815260200184815250908060018154018082558091505060019003905f5260205f2090600402015f909190919091505f820151815f019081610b559190612d98565b506020820151816001019081610b6b9190612d98565b50604082015181600201556060820151816003019081610b8b9190612d98565b505050610b9f610b99610ac0565b826117fb565b807f96eb0af93967f17ab3f3cb7dc4a02f1471029d10a06b2048333d2742934868b486868686604051610bd594939291906125f0565b60405180910390a25050505050565b606060018054610bf390612b01565b80601f0160208091040260200160405190810160405280929190818152602001828054610c1f90612b01565b8015610c6a5780601f10610c4157610100808354040283529160200191610c6a565b820191905f5260205f20905b815481529060010190602001808311610c4d57829003601f168201915b5050505050905090565b60088181548110610c83575f80fd5b905f5260205f2090600402015f91509050805f018054610ca290612b01565b80601f0160208091040260200160405190810160405280929190818152602001828054610cce90612b01565b8015610d195780601f10610cf057610100808354040283529160200191610d19565b820191905f5260205f20905b815481529060010190602001808311610cfc57829003601f168201915b505050505090806001018054610d2e90612b01565b80601f0160208091040260200160405190810160405280929190818152602001828054610d5a90612b01565b8015610da55780601f10610d7c57610100808354040283529160200191610da5565b820191905f5260205f20905b815481529060010190602001808311610d8857829003601f168201915b505050505090806002015490806003018054610dc090612b01565b80601f0160208091040260200160405190810160405280929190818152602001828054610dec90612b01565b8015610e375780601f10610e0e57610100808354040283529160200191610e37565b820191905f5260205f20905b815481529060010190602001808311610e1a57829003601f168201915b5050505050905084565b610e53610e4c61148d565b8383611818565b5050565b610e628484846108c8565b610e6e84848484611981565b50505050565b6060610e7f826113ce565b505f610e89611b33565b90505f815111610ea75760405180602001604052805f815250610ed2565b80610eb184611b49565b604051602001610ec2929190612ea1565b6040516020818303038152906040525b915050919050565b6008805490508310610f21576040517f08c379a0000000000000000000000000000000000000000000000000000000008152600401610f1890612b7b565b60405180910390fd5b5f60088481548110610f3657610f35612b99565b5b905f5260205f2090600402016040518060800160405290815f82018054610f5c90612b01565b80601f0160208091040260200160405190810160405280929190818152602001828054610f8890612b01565b8015610fd35780601f10610faa57610100808354040283529160200191610fd3565b820191905f5260205f20905b815481529060010190602001808311610fb657829003601f168201915b50505050508152602001600182018054610fec90612b01565b80601f016020809104026020016040519081016040528092919081815260200182805461101890612b01565b80156110635780601f1061103a57610100808354040283529160200191611063565b820191905f5260205f20905b81548152906001019060200180831161104657829003601f168201915b505050505081526020016002820154815260200160038201805461108690612b01565b80601f01602080910402602001604051908101604052809291908181526020018280546110b290612b01565b80156110fd5780601f106110d4576101008083540402835291602001916110fd565b820191905f5260205f20905b8154815290600101906020018083116110e057829003601f168201915b5050505050815250509050806040015134101561114f576040517f08c379a000000000000000000000000000000000000000000000000000000000815260040161114690612f0e565b60405180910390fd5b61116261115b856109e6565b3386611c13565b60075f9054906101000a900473ffffffffffffffffffffffffffffffffffffffff1673ffffffffffffffffffffffffffffffffffffffff1663dd91b9398585856040518463ffffffff1660e01b81526004016111c093929190612f2c565b5f604051808303815f87803b1580156111d7575f80fd5b505af11580156111e9573d5f803e3d5ffd5b50505050806040015134111561124d573373ffffffffffffffffffffffffffffffffffffffff166108fc8260400151346112239190612f8e565b90811502906040515f60405180830381858888f1935050505015801561124b573d5f803e3d5ffd5b505b50505050565b5f60055f8473ffffffffffffffffffffffffffffffffffffffff1673ffffffffffffffffffffffffffffffffffffffff1681526020019081526020015f205f8373ffffffffffffffffffffffffffffffffffffffff1673ffffffffffffffffffffffffffffffffffffffff1681526020019081526020015f205f9054906101000a900460ff16905092915050565b6112e96116b1565b5f73ffffffffffffffffffffffffffffffffffffffff168173ffffffffffffffffffffffffffffffffffffffff1603611359575f6040517f1e4fbdf70000000000000000000000000000000000000000000000000000000081526004016113509190612560565b60405180910390fd5b61136281611738565b50565b5f7f01ffc9a7000000000000000000000000000000000000000000000000000000007bffffffffffffffffffffffffffffffffffffffffffffffffffffffff1916827bffffffffffffffffffffffffffffffffffffffffffffffffffffffff1916149050919050565b5f806113d983611d7b565b90505f73ffffffffffffffffffffffffffffffffffffffff168173ffffffffffffffffffffffffffffffffffffffff160361144b57826040517f7e27328900000000000000000000000000000000000000000000000000000000815260040161144291906126c3565b60405180910390fd5b80915050919050565b5f60045f8381526020019081526020015f205f9054906101000a900473ffffffffffffffffffffffffffffffffffffffff169050919050565b5f33905090565b6114a18383836001611db4565b505050565b5f806114b184611d7b565b90505f73ffffffffffffffffffffffffffffffffffffffff168373ffffffffffffffffffffffffffffffffffffffff16146114f2576114f1818486611f73565b5b5f73ffffffffffffffffffffffffffffffffffffffff168173ffffffffffffffffffffffffffffffffffffffff161461157d576115315f855f80611db4565b600160035f8373ffffffffffffffffffffffffffffffffffffffff1673ffffffffffffffffffffffffffffffffffffffff1681526020019081526020015f205f82825403925050819055505b5f73ffffffffffffffffffffffffffffffffffffffff168573ffffffffffffffffffffffffffffffffffffffff16146115fc57600160035f8773ffffffffffffffffffffffffffffffffffffffff1673ffffffffffffffffffffffffffffffffffffffff1681526020019081526020015f205f82825401925050819055505b8460025f8681526020019081526020015f205f6101000a81548173ffffffffffffffffffffffffffffffffffffffff021916908373ffffffffffffffffffffffffffffffffffffffff160217905550838573ffffffffffffffffffffffffffffffffffffffff168273ffffffffffffffffffffffffffffffffffffffff167fddf252ad1be2c89b69c2b068fc378daa952ba7f163c4a11628f55a4df523b3ef60405160405180910390a4809150509392505050565b6116b961148d565b73ffffffffffffffffffffffffffffffffffffffff166116d7610ac0565b73ffffffffffffffffffffffffffffffffffffffff1614611736576116fa61148d565b6040517f118cdaa700000000000000000000000000000000000000000000000000000000815260040161172d9190612560565b60405180910390fd5b565b5f60065f9054906101000a900473ffffffffffffffffffffffffffffffffffffffff1690508160065f6101000a81548173ffffffffffffffffffffffffffffffffffffffff021916908373ffffffffffffffffffffffffffffffffffffffff1602179055508173ffffffffffffffffffffffffffffffffffffffff168173ffffffffffffffffffffffffffffffffffffffff167f8be0079c531659141344cd1fd0a4f28419497f9722a3daafe3b4186f6b6457e060405160405180910390a35050565b611814828260405180602001604052805f815250612036565b5050565b5f73ffffffffffffffffffffffffffffffffffffffff168273ffffffffffffffffffffffffffffffffffffffff160361188857816040517f5b08ba1800000000000000000000000000000000000000000000000000000000815260040161187f9190612560565b60405180910390fd5b8060055f8573ffffffffffffffffffffffffffffffffffffffff1673ffffffffffffffffffffffffffffffffffffffff1681526020019081526020015f205f8473ffffffffffffffffffffffffffffffffffffffff1673ffffffffffffffffffffffffffffffffffffffff1681526020019081526020015f205f6101000a81548160ff0219169083151502179055508173ffffffffffffffffffffffffffffffffffffffff168373ffffffffffffffffffffffffffffffffffffffff167f17307eab39ab6107e8899845ad3d59bd9653f200f220920489ca2b5937696c31836040516119749190612400565b60405180910390a3505050565b5f8373ffffffffffffffffffffffffffffffffffffffff163b1115611b2d578273ffffffffffffffffffffffffffffffffffffffff1663150b7a026119c461148d565b8685856040518563ffffffff1660e01b81526004016119e69493929190613013565b6020604051808303815f875af1925050508015611a2157506040513d601f19601f82011682018060405250810190611a1e9190613071565b60015b611aa2573d805f8114611a4f576040519150601f19603f3d011682016040523d82523d5f602084013e611a54565b606091505b505f815103611a9a57836040517f64a0ae92000000000000000000000000000000000000000000000000000000008152600401611a919190612560565b60405180910390fd5b805181602001fd5b63150b7a0260e01b7bffffffffffffffffffffffffffffffffffffffffffffffffffffffff1916817bffffffffffffffffffffffffffffffffffffffffffffffffffffffff191614611b2b57836040517f64a0ae92000000000000000000000000000000000000000000000000000000008152600401611b229190612560565b60405180910390fd5b505b50505050565b606060405180602001604052805f815250905090565b60605f6001611b5784612051565b0190505f8167ffffffffffffffff811115611b7557611b746126e4565b5b6040519080825280601f01601f191660200182016040528015611ba75781602001600182028036833780820191505090505b5090505f82602001820190505b600115611c08578080600190039150507f3031323334353637383961626364656600000000000000000000000000000000600a86061a8153600a8581611bfd57611bfc61309c565b5b0494505f8503611bb4575b819350505050919050565b5f73ffffffffffffffffffffffffffffffffffffffff168273ffffffffffffffffffffffffffffffffffffffff1603611c83575f6040517f64a0ae92000000000000000000000000000000000000000000000000000000008152600401611c7a9190612560565b60405180910390fd5b5f611c8f83835f6114a6565b90505f73ffffffffffffffffffffffffffffffffffffffff168173ffffffffffffffffffffffffffffffffffffffff1603611d0157816040517f7e273289000000000000000000000000000000000000000000000000000000008152600401611cf891906126c3565b60405180910390fd5b8373ffffffffffffffffffffffffffffffffffffffff168173ffffffffffffffffffffffffffffffffffffffff1614611d75578382826040517f64283d7b000000000000000000000000000000000000000000000000000000008152600401611d6c93929190612bc6565b60405180910390fd5b50505050565b5f60025f8381526020019081526020015f205f9054906101000a900473ffffffffffffffffffffffffffffffffffffffff169050919050565b8080611dec57505f73ffffffffffffffffffffffffffffffffffffffff168273ffffffffffffffffffffffffffffffffffffffff1614155b15611f1e575f611dfb846113ce565b90505f73ffffffffffffffffffffffffffffffffffffffff168373ffffffffffffffffffffffffffffffffffffffff1614158015611e6557508273ffffffffffffffffffffffffffffffffffffffff168173ffffffffffffffffffffffffffffffffffffffff1614155b8015611e785750611e768184611253565b155b15611eba57826040517fa9fbf51f000000000000000000000000000000000000000000000000000000008152600401611eb19190612560565b60405180910390fd5b8115611f1c57838573ffffffffffffffffffffffffffffffffffffffff168273ffffffffffffffffffffffffffffffffffffffff167f8c5be1e5ebec7d5bd14f71427d1e84f3dd0314c0f7b2291e5b200ac8c7c3b92560405160405180910390a45b505b8360045f8581526020019081526020015f205f6101000a81548173ffffffffffffffffffffffffffffffffffffffff021916908373ffffffffffffffffffffffffffffffffffffffff16021790555050505050565b611f7e8383836121a2565b612031575f73ffffffffffffffffffffffffffffffffffffffff168373ffffffffffffffffffffffffffffffffffffffff1603611ff257806040517f7e273289000000000000000000000000000000000000000000000000000000008152600401611fe991906126c3565b60405180910390fd5b81816040517f177e802f0000000000000000000000000000000000000000000000000000000081526004016120289291906130c9565b60405180910390fd5b505050565b6120408383612262565b61204c5f848484611981565b505050565b5f805f90507a184f03e93ff9f4daa797ed6e38ed64bf6a1f01000000000000000083106120ad577a184f03e93ff9f4daa797ed6e38ed64bf6a1f01000000000000000083816120a3576120a261309c565b5b0492506040810190505b6d04ee2d6d415b85acef810000000083106120ea576d04ee2d6d415b85acef810000000083816120e0576120df61309c565b5b0492506020810190505b662386f26fc10000831061211957662386f26fc10000838161210f5761210e61309c565b5b0492506010810190505b6305f5e1008310612142576305f5e10083816121385761213761309c565b5b0492506008810190505b612710831061216757612710838161215d5761215c61309c565b5b0492506004810190505b6064831061218a57606483816121805761217f61309c565b5b0492506002810190505b600a8310612199576001810190505b80915050919050565b5f8073ffffffffffffffffffffffffffffffffffffffff168373ffffffffffffffffffffffffffffffffffffffff161415801561225957508273ffffffffffffffffffffffffffffffffffffffff168473ffffffffffffffffffffffffffffffffffffffff16148061221a57506122198484611253565b5b8061225857508273ffffffffffffffffffffffffffffffffffffffff1661224083611454565b73ffffffffffffffffffffffffffffffffffffffff16145b5b90509392505050565b5f73ffffffffffffffffffffffffffffffffffffffff168273ffffffffffffffffffffffffffffffffffffffff16036122d2575f6040517f64a0ae920000000000000000000000000000000000000000000000000000000081526004016122c99190612560565b60405180910390fd5b5f6122de83835f6114a6565b90505f73ffffffffffffffffffffffffffffffffffffffff168173ffffffffffffffffffffffffffffffffffffffff1614612350575f6040517f73c6ac6e0000000000000000000000000000000000000000000000000000000081526004016123479190612560565b60405180910390fd5b505050565b5f604051905090565b5f80fd5b5f80fd5b5f7fffffffff0000000000000000000000000000000000000000000000000000000082169050919050565b61239a81612366565b81146123a4575f80fd5b50565b5f813590506123b581612391565b92915050565b5f602082840312156123d0576123cf61235e565b5b5f6123dd848285016123a7565b91505092915050565b5f8115159050919050565b6123fa816123e6565b82525050565b5f6020820190506124135f8301846123f1565b92915050565b5f81519050919050565b5f82825260208201905092915050565b5f5b83811015612450578082015181840152602081019050612435565b5f8484015250505050565b5f601f19601f8301169050919050565b5f61247582612419565b61247f8185612423565b935061248f818560208601612433565b6124988161245b565b840191505092915050565b5f6020820190508181035f8301526124bb818461246b565b905092915050565b5f819050919050565b6124d5816124c3565b81146124df575f80fd5b50565b5f813590506124f0816124cc565b92915050565b5f6020828403121561250b5761250a61235e565b5b5f612518848285016124e2565b91505092915050565b5f73ffffffffffffffffffffffffffffffffffffffff82169050919050565b5f61254a82612521565b9050919050565b61255a81612540565b82525050565b5f6020820190506125735f830184612551565b92915050565b61258281612540565b811461258c575f80fd5b50565b5f8135905061259d81612579565b92915050565b5f80604083850312156125b9576125b861235e565b5b5f6125c68582860161258f565b92505060206125d7858286016124e2565b9150509250929050565b6125ea816124c3565b82525050565b5f6080820190508181035f830152612608818761246b565b9050818103602083015261261c818661246b565b905061262b60408301856125e1565b818103606083015261263d818461246b565b905095945050505050565b5f805f6060848603121561265f5761265e61235e565b5b5f61266c8682870161258f565b935050602061267d8682870161258f565b925050604061268e868287016124e2565b9150509250925092565b5f602082840312156126ad576126ac61235e565b5b5f6126ba8482850161258f565b91505092915050565b5f6020820190506126d65f8301846125e1565b92915050565b5f80fd5b5f80fd5b7f4e487b71000000000000000000000000000000000000000000000000000000005f52604160045260245ffd5b61271a8261245b565b810181811067ffffffffffffffff82111715612739576127386126e4565b5b80604052505050565b5f61274b612355565b90506127578282612711565b919050565b5f67ffffffffffffffff821115612776576127756126e4565b5b61277f8261245b565b9050602081019050919050565b828183375f83830152505050565b5f6127ac6127a78461275c565b612742565b9050828152602081018484840111156127c8576127c76126e0565b5b6127d384828561278c565b509392505050565b5f82601f8301126127ef576127ee6126dc565b5b81356127ff84826020860161279a565b91505092915050565b5f805f80608085870312156128205761281f61235e565b5b5f85013567ffffffffffffffff81111561283d5761283c612362565b5b612849878288016127db565b945050602085013567ffffffffffffffff81111561286a57612869612362565b5b612876878288016127db565b9350506040612887878288016124e2565b925050606085013567ffffffffffffffff8111156128a8576128a7612362565b5b6128b4878288016127db565b91505092959194509250565b6128c9816123e6565b81146128d3575f80fd5b50565b5f813590506128e4816128c0565b92915050565b5f8060408385031215612900576128ff61235e565b5b5f61290d8582860161258f565b925050602061291e858286016128d6565b9150509250929050565b5f67ffffffffffffffff821115612942576129416126e4565b5b61294b8261245b565b9050602081019050919050565b5f61296a61296584612928565b612742565b905082815260208101848484011115612986576129856126e0565b5b61299184828561278c565b509392505050565b5f82601f8301126129ad576129ac6126dc565b5b81356129bd848260208601612958565b91505092915050565b5f805f80608085870312156129de576129dd61235e565b5b5f6129eb8782880161258f565b94505060206129fc8782880161258f565b9350506040612a0d878288016124e2565b925050606085013567ffffffffffffffff811115612a2e57612a2d612362565b5b612a3a87828801612999565b91505092959194509250565b5f805f60608486031215612a5d57612a5c61235e565b5b5f612a6a868287016124e2565b9350506020612a7b8682870161258f565b9250506040612a8c868287016124e2565b9150509250925092565b5f8060408385031215612aac57612aab61235e565b5b5f612ab98582860161258f565b9250506020612aca8582860161258f565b9150509250929050565b7f4e487b71000000000000000000000000000000000000000000000000000000005f52602260045260245ffd5b5f6002820490506001821680612b1857607f821691505b602082108103612b2b57612b2a612ad4565b5b50919050565b7f436f7572736520646f6573206e6f7420657869737400000000000000000000005f82015250565b5f612b65601583612423565b9150612b7082612b31565b602082019050919050565b5f6020820190508181035f830152612b9281612b59565b9050919050565b7f4e487b71000000000000000000000000000000000000000000000000000000005f52603260045260245ffd5b5f606082019050612bd95f830186612551565b612be660208301856125e1565b612bf36040830184612551565b949350505050565b5f819050815f5260205f209050919050565b5f6020601f8301049050919050565b5f82821b905092915050565b5f60088302612c577fffffffffffffffffffffffffffffffffffffffffffffffffffffffffffffffff82612c1c565b612c618683612c1c565b95508019841693508086168417925050509392505050565b5f819050919050565b5f612c9c612c97612c92846124c3565b612c79565b6124c3565b9050919050565b5f819050919050565b612cb583612c82565b612cc9612cc182612ca3565b848454612c28565b825550505050565b5f90565b612cdd612cd1565b612ce8818484612cac565b505050565b5b81811015612d0b57612d005f82612cd5565b600181019050612cee565b5050565b601f821115612d5057612d2181612bfb565b612d2a84612c0d565b81016020851015612d39578190505b612d4d612d4585612c0d565b830182612ced565b50505b505050565b5f82821c905092915050565b5f612d705f1984600802612d55565b1980831691505092915050565b5f612d888383612d61565b9150826002028217905092915050565b612da182612419565b67ffffffffffffffff811115612dba57612db96126e4565b5b612dc48254612b01565b612dcf828285612d0f565b5f60209050601f831160018114612e00575f8415612dee578287015190505b612df88582612d7d565b865550612e5f565b601f198416612e0e86612bfb565b5f5b82811015612e3557848901518255600182019150602085019450602081019050612e10565b86831015612e525784890151612e4e601f891682612d61565b8355505b6001600288020188555050505b505050505050565b5f81905092915050565b5f612e7b82612419565b612e858185612e67565b9350612e95818560208601612433565b80840191505092915050565b5f612eac8285612e71565b9150612eb88284612e71565b91508190509392505050565b7f496e73756666696369656e742066756e647300000000000000000000000000005f82015250565b5f612ef8601283612423565b9150612f0382612ec4565b602082019050919050565b5f6020820190508181035f830152612f2581612eec565b9050919050565b5f606082019050612f3f5f8301866125e1565b612f4c6020830185612551565b612f5960408301846125e1565b949350505050565b7f4e487b71000000000000000000000000000000000000000000000000000000005f52601160045260245ffd5b5f612f98826124c3565b9150612fa3836124c3565b9250828203905081811115612fbb57612fba612f61565b5b92915050565b5f81519050919050565b5f82825260208201905092915050565b5f612fe582612fc1565b612fef8185612fcb565b9350612fff818560208601612433565b6130088161245b565b840191505092915050565b5f6080820190506130265f830187612551565b6130336020830186612551565b61304060408301856125e1565b81810360608301526130528184612fdb565b905095945050505050565b5f8151905061306b81612391565b92915050565b5f602082840312156130865761308561235e565b5b5f6130938482850161305d565b91505092915050565b7f4e487b71000000000000000000000000000000000000000000000000000000005f52601260045260245ffd5b5f6040820190506130dc5f830185612551565b6130e960208301846125e1565b939250505056fea264697066735822122051b7fac6768d72f56f21ddb9eb9de6ea719a6cbc523b0f51bf3fa96ebfcac41364736f6c63430008150033",
  "immutableReferences": {},
  "source": "// SPDX-License-Identifier: MIT\r\n// Course.sol\r\n\r\npragma solidity ^0.8.0;\r\n\r\nimport \"@openzeppelin/contracts/token/ERC721/ERC721.sol\";\r\nimport \"@openzeppelin/contracts/access/Ownable.sol\";\r\nimport \"./AccessControl.sol\";\r\n\r\ncontract Course is ERC721, Ownable {\r\n    AccessControl private accessControlContract;\r\n\r\n    // Struct to represent course metadata\r\n    struct CourseMetadata {\r\n        string name;\r\n        string description;\r\n        uint256 price; // Price in wei\r\n        string ipfsHash; // IPFS hash for additional course content\r\n    }\r\n\r\n    // Array to store course metadata\r\n    CourseMetadata[] public courses;\r\n\r\n    // Event emitted when a new course is created\r\n    event CourseCreated(uint256 indexed courseId, string name, string description, uint256 price, string ipfsHash);\r\n\r\n    // Constructor function\r\n    constructor(address _accessControlAddress) ERC721(\"Course\", \"CRS\") Ownable(msg.sender) {\r\n        accessControlContract = AccessControl(_accessControlAddress);\r\n    }\r\n\r\n    // Function to create a new course\r\n    function createCourse(string memory name, string memory description, uint256 price, string memory ipfsHash) public onlyOwner {\r\n        uint256 courseId = courses.length;\r\n\r\n        // Add course metadata to the array\r\n        courses.push(CourseMetadata(name, description, price, ipfsHash));\r\n\r\n        // Mint a new token representing the course\r\n        _safeMint(owner(), courseId);\r\n\r\n        // Emit event\r\n        emit CourseCreated(courseId, name, description, price, ipfsHash);\r\n    }\r\n\r\n    // Function to purchase access to a course\r\n    function purchaseAccess(uint256 courseId, address tokenAddress, uint256 fee) public payable {\r\n        require(courseId < courses.length, \"Course does not exist\");\r\n\r\n        CourseMetadata memory course = courses[courseId];\r\n        require(msg.value >= course.price, \"Insufficient funds\");\r\n\r\n        // Transfer ownership of the course token to the buyer\r\n        _transfer(ownerOf(courseId), msg.sender, courseId);\r\n\r\n        // Grant access to the course for the buyer\r\n        accessControlContract.purchaseAccess(courseId, tokenAddress, fee);\r\n\r\n        // Refund any excess payment\r\n        if (msg.value > course.price) {\r\n            payable(msg.sender).transfer(msg.value - course.price);\r\n        }\r\n    }\r\n\r\n    // Function to get course metadata by courseId\r\n    function getCourse(uint256 courseId) public view returns (string memory name, string memory description, uint256 price, string memory ipfsHash) {\r\n        require(courseId < courses.length, \"Course does not exist\");\r\n\r\n        CourseMetadata memory course = courses[courseId];\r\n        return (course.name, course.description, course.price, course.ipfsHash);\r\n    }\r\n}\r\n",
  "sourcePath": "C:\\Users\\LENOVO\\OneDrive\\Desktop\\DALP\\contracts\\Course.sol",
  "compiler": {
    "name": "solc",
    "version": "0.8.21+commit.d9974bed.Emscripten.clang"
  },
  "schemaVersion": "3.4.16",
  "updatedAt": "2024-03-31T02:41:26.680Z",
  "networkType": "ethereum",
  "devdoc": {
    "errors": {
      "ERC721IncorrectOwner(address,uint256,address)": [
        {
          "details": "Indicates an error related to the ownership over a particular token. Used in transfers.",
          "params": {
            "owner": "Address of the current owner of a token.",
            "sender": "Address whose tokens are being transferred.",
            "tokenId": "Identifier number of a token."
          }
        }
      ],
      "ERC721InsufficientApproval(address,uint256)": [
        {
          "details": "Indicates a failure with the `operator`s approval. Used in transfers.",
          "params": {
            "operator": "Address that may be allowed to operate on tokens without being their owner.",
            "tokenId": "Identifier number of a token."
          }
        }
      ],
      "ERC721InvalidApprover(address)": [
        {
          "details": "Indicates a failure with the `approver` of a token to be approved. Used in approvals.",
          "params": {
            "approver": "Address initiating an approval operation."
          }
        }
      ],
      "ERC721InvalidOperator(address)": [
        {
          "details": "Indicates a failure with the `operator` to be approved. Used in approvals.",
          "params": {
            "operator": "Address that may be allowed to operate on tokens without being their owner."
          }
        }
      ],
      "ERC721InvalidOwner(address)": [
        {
          "details": "Indicates that an address can't be an owner. For example, `address(0)` is a forbidden owner in EIP-20. Used in balance queries.",
          "params": {
            "owner": "Address of the current owner of a token."
          }
        }
      ],
      "ERC721InvalidReceiver(address)": [
        {
          "details": "Indicates a failure with the token `receiver`. Used in transfers.",
          "params": {
            "receiver": "Address to which tokens are being transferred."
          }
        }
      ],
      "ERC721InvalidSender(address)": [
        {
          "details": "Indicates a failure with the token `sender`. Used in transfers.",
          "params": {
            "sender": "Address whose tokens are being transferred."
          }
        }
      ],
      "ERC721NonexistentToken(uint256)": [
        {
          "details": "Indicates a `tokenId` whose `owner` is the zero address.",
          "params": {
            "tokenId": "Identifier number of a token."
          }
        }
      ],
      "OwnableInvalidOwner(address)": [
        {
          "details": "The owner is not a valid owner account. (eg. `address(0)`)"
        }
      ],
      "OwnableUnauthorizedAccount(address)": [
        {
          "details": "The caller account is not authorized to perform an operation."
        }
      ]
    },
    "events": {
      "Approval(address,address,uint256)": {
        "details": "Emitted when `owner` enables `approved` to manage the `tokenId` token."
      },
      "ApprovalForAll(address,address,bool)": {
        "details": "Emitted when `owner` enables or disables (`approved`) `operator` to manage all of its assets."
      },
      "Transfer(address,address,uint256)": {
        "details": "Emitted when `tokenId` token is transferred from `from` to `to`."
      }
    },
    "kind": "dev",
    "methods": {
      "approve(address,uint256)": {
        "details": "See {IERC721-approve}."
      },
      "balanceOf(address)": {
        "details": "See {IERC721-balanceOf}."
      },
      "getApproved(uint256)": {
        "details": "See {IERC721-getApproved}."
      },
      "isApprovedForAll(address,address)": {
        "details": "See {IERC721-isApprovedForAll}."
      },
      "name()": {
        "details": "See {IERC721Metadata-name}."
      },
      "owner()": {
        "details": "Returns the address of the current owner."
      },
      "ownerOf(uint256)": {
        "details": "See {IERC721-ownerOf}."
      },
      "renounceOwnership()": {
        "details": "Leaves the contract without owner. It will not be possible to call `onlyOwner` functions. Can only be called by the current owner. NOTE: Renouncing ownership will leave the contract without an owner, thereby disabling any functionality that is only available to the owner."
      },
      "safeTransferFrom(address,address,uint256)": {
        "details": "See {IERC721-safeTransferFrom}."
      },
      "safeTransferFrom(address,address,uint256,bytes)": {
        "details": "See {IERC721-safeTransferFrom}."
      },
      "setApprovalForAll(address,bool)": {
        "details": "See {IERC721-setApprovalForAll}."
      },
      "supportsInterface(bytes4)": {
        "details": "See {IERC165-supportsInterface}."
      },
      "symbol()": {
        "details": "See {IERC721Metadata-symbol}."
      },
      "tokenURI(uint256)": {
        "details": "See {IERC721Metadata-tokenURI}."
      },
      "transferFrom(address,address,uint256)": {
        "details": "See {IERC721-transferFrom}."
      },
      "transferOwnership(address)": {
        "details": "Transfers ownership of the contract to a new account (`newOwner`). Can only be called by the current owner."
      }
    },
    "version": 1
  },
  "userdoc": {
    "kind": "user",
    "methods": {},
    "version": 1
  }
}